:100000000C942A000C943C000C943C000C943C0092
:100010000C943C000C943C000C943C000C943C0070
:100020000C943C000C943C000C9455010C943C0046
:100030000C943C000C943C000C943C000C943C0050
:100040000C943C000C943C000C943C000C943C0040
:100050000C943C0011241FBECFE5D8E0DEBFCDBF1D
:1000600020E0A0E6B0E001C01D92A836B207E1F79B
:100070000E9446010C942E020C940000442379F156
:10008000413009F05FC0813079F028F08230A9F06A
:100090008330E1F008952AB381E090E001C0880F39
:1000A0006A95EAF7822B2CC027B381E090E001C06B
:1000B000880F6A95EAF7822B2EC024B381E090E086
:1000C00001C0880F6A95EAF7822B30C021B381E026
:1000D00090E001C0880F6A95EAF7822B32C0813028
:1000E00089F028F08230C9F0833011F108952AB3E5
:1000F00081E090E001C0880F6A95EAF7809582233D
:100100008ABB089527B381E090E001C0880F6A950B
:10011000EAF78095822387BB089524B381E090E0BD
:1001200001C0880F6A95EAF78095822384BB089501
:1001300021B381E090E001C0880F6A95EAF78095CD
:10014000822381BB0895442379F1413009F05FC0D7
:10015000813079F028F08230A9F08330E1F0089501
:100160002BB381E090E001C0880F6A95EAF7822BFB
:100170002CC028B381E090E001C0880F6A95EAF7AF
:10018000822B2EC025B381E090E001C0880F6A95D4
:10019000EAF7822B30C022B381E090E001C0880FE3
:1001A0006A95EAF7822B32C0813089F028F08230DC
:1001B000C9F0833011F108952BB381E090E001C0C4
:1001C000880F6A95EAF7809582238BBB089528B340
:1001D00081E090E001C0880F6A95EAF7809582235C
:1001E00088BB089525B381E090E001C0880F6A952F
:1001F000EAF78095822385BB089522B381E090E0E1
:1002000001C0880F6A95EAF78095822382BB089522
:10021000813081F028F08230B9F08330F9F0089510
:100220002BB381E090E001C0880F6A95EAF782273E
:100230008BBB089528B381E090E001C0880F6A95D8
:10024000EAF7822788BB089525B381E090E001C0DA
:10025000880F6A95EAF7822785BB089522B381E06B
:1002600090E001C0880F6A95EAF7822782BB089563
:1002700041E062E082E00C943E0041E062E082E016
:100280000C94A30062E082E00C9408010E94380103
:100290000E943D010E94A10168EE73E080E090E0C1
:1002A0000E94B2010E94AE01FFCF1F920F920FB6C3
:1002B0000F9211242F933F934F935F936F937F93EC
:1002C0008F939F93AF93BF93EF93FF9380916000C1
:1002D00090916100A0916200B09163000196A11D10
:1002E000B11D8093600090936100A0936200B09371
:1002F00063004091640050916500609166007091C8
:10030000670084179507A607B70751F40E944201BA
:1003100010926000109261001092620010926300CF
:10032000FF91EF91BF91AF919F918F917F916F91CD
:100330005F914F913F912F910F900FBE0F901F90A3
:10034000189583B7886083BF83B78F7B83BF89B7D6
:10035000816089BF8FB780688FBF089583B785603C
:1003600083BF0895CF92DF92EF92FF926B017C01E1
:10037000A8EEB3E09B01AC010E941402DC01CB01AA
:1003800026E0B695A795979587952A95D1F76FEFB3
:10039000680F6CBF81E1C816D104E104F10468F074
:1003A00081E090E0A0E0B0E080936400909365006D
:1003B000A0936600B093670010C060E170E080E039
:1003C00090E0A70196010E94F2012093640030930F
:1003D00065004093660050936700FF90EF90DF90B8
:1003E000CF900895A1E21A2EAA1BBB1BFD010DC0E0
:1003F000AA1FBB1FEE1FFF1FA217B307E407F507D5
:1004000020F0A21BB30BE40BF50B661F771F881FB0
:10041000991F1A9469F760957095809590959B0146
:10042000AC01BD01CF0108950E941F02A59F900D50
:10043000B49F900DA49F800D911D11240895A29F3B
:10044000B001B39FC001A39F700D811D1124911DA8
:10045000B29F700D811D1124911D0895F894FFCF56
:00000001FF
