:100000000C942A000C943C000C943C000C943C0092
:100010000C943C000C943C000C943C000C943C0070
:100020000C943C000C943C000C9474010C943C0027
:100030000C943C000C943C000C943C000C943C0050
:100040000C943C000C943C000C943C000C943C0040
:100050000C943C0011241FBECFE5D8E0DEBFCDBF1D
:1000600020E0A0E6B0E001C01D92A436B207E1F79F
:100070000E9465010C94F7010C9400004423B9F12F
:10008000413009F06BC0813089F028F08230C9F02E
:10009000833011F108952AB381E090E002C0880F07
:1000A000991F6A95E2F7822B8ABB089527B381E0F6
:1000B00090E002C0880F991F6A95E2F7822B87BBF8
:1000C000089524B381E090E002C0880F991F6A95DB
:1000D000E2F7822B84BB089521B381E090E002C057
:1000E000880F991F6A95E2F7822B81BB08958130B2
:1000F00091F028F08230D9F0833029F108952AB3A5
:1001000081E090E002C0880F991F6A95E2F7809520
:1001100082238ABB089527B381E090E002C0880F54
:10012000991F6A95E2F78095822387BB089524B3CF
:1001300081E090E002C0880F991F6A95E2F78095F0
:10014000822384BB089521B381E090E002C0880F30
:10015000991F6A95E2F78095822381BB0895442315
:10016000B9F1413009F06BC0813089F028F082305C
:10017000C9F0833011F108952BB381E090E002C003
:10018000880F991F6A95E2F7822B8BBB089528B3DD
:1001900081E090E002C0880F991F6A95E2F7822BF8
:1001A00088BB089525B381E090E002C0880F991FB5
:1001B0006A95E2F7822B85BB089522B381E090E037
:1001C00002C0880F991F6A95E2F7822B82BB0895BF
:1001D000813091F028F08230D9F0833029F10895F0
:1001E0002BB381E090E002C0880F991F6A95E2F777
:1001F000809582238BBB089528B381E090E002C0F4
:10020000880F991F6A95E2F78095822388BB08952D
:1002100025B381E090E002C0880F991F6A95E2F74C
:100220008095822385BB089522B381E090E002C0CF
:10023000880F991F6A95E2F78095822382BB089503
:10024000813089F028F08230C9F0833011F10895AF
:100250002BB381E090E002C0880F991F6A95E2F706
:1002600082278BBB089528B381E090E002C0880FFD
:10027000991F6A95E2F7822788BB089525B381E02C
:1002800090E002C0880F991F6A95E2F7822785BB2C
:10029000089522B381E090E002C0880F991F6A950B
:1002A000E2F7822782BB089541E062E082E00E948B
:1002B0003E00089541E062E082E00E94AF000895B0
:1002C00062E082E00E94200108950E9454010E9491
:1002D0005A010E94B80168EE73E080E090E00E944D
:1002E000C9010E94C501FFCF1F920F920FB60F9256
:1002F00011242F933F934F935F936F937F938F932B
:100300009F93AF93BF93EF93FF9380916000909181
:100310006100A0916200B09163000196A11DB11D22
:100320008093600090936100A0936200B09363009B
:1003300084369105A105B10551F40E946001109227
:100340006000109261001092620010926300FF91B1
:10035000EF91BF91AF919F918F917F916F915F913D
:100360004F913F912F910F900FBE0F901F901895B6
:1003700083B7886083BF83B78F7B83BF89B7816072
:1003800089BF8FB780688FBF089583B7856083BFAB
:1003900008959B01AC01A8EEB3E00E94DD01DC01F1
:1003A000CB01689415F8B695A795979587951694FF
:1003B000D1F76FEF680F6CBF08950E94E801A59F09
:1003C000900DB49F900DA49F800D911D1124089550
:1003D000A29FB001B39FC001A39F700D811D112486
:1003E000911DB29F700D811D1124911D0895F894E7
:0203F000FFCF3D
:00000001FF
